:100000000C9406020C944D020C944D020C944D027B
:100010000C944D020C944D020C944D020C944D0224
:100020000C944D020C944D020C9422200C94F6205A
:100030000C94941A0C944D020C944D020C944D02A5
:100040000C944D020C944D020C944D020C944D02F4
:100050000C944D020C94EB1A0C944D020C944D022E
:100060000C944D020C944D020C944D020C944D02D4
:100070000C944D020C944D020C944D020C944D02C4
:100080000C944D020C944D020C944D020C944D02B4
:100090000C944D020C944D020C944D020C944D02A4
:1000A0000C944D020C944D020C944D0229001E003C
:1000B0001F0020002100220023002400250026002C
:1000C00027002D002E002A004C002B0014001A00DF
:1000D0000800150017001C0018000C001200130087
:1000E0002F00300031004B003900040016000700DB
:1000F00009000A000B000D000E000F003300340051
:10010000000028004E00E1001D001B000600190041
:100110000500110010003600370038000000E5002F
:1001200052004D00E300E200E000000000002C005F
:10013000000000000000E4000151000050005100E8
:100140004F0035023A003B003C003D003E003F00BE
:100150004000410042004300440045000100005CB3
:100160000100010001000100010001000100010087
:100170000100010001000100010001000100010077
:100180000100010001000100010001000100010067
:100190000100010001000000010001000100010058
:1001A0000100010001000100010001000100010047
:1001B00001000000AA00AF00A90001000100010039
:1001C000000000000100000000000000010001002C
:1001D0000000AC00AE00AB0000000000000000001A
:1001E0002A2B280000000000000000000000000092
:1001F00000000029000000002C1E3420212224349D
:100200002627252E362D3738271E1F20212223246E
:1002100025263333362E37381F0405060708090A0A
:100220000B0C0D0E0F101112131415161718191AA6
:100230001B1C1D2F3130232D350405060708090A24
:100240000B0C0D0E0F101112131415161718191A86
:100250001B1C1D2F3130354C000000000000000039
:10026000000000000000000000000000000000008E
:100270000000000000000000000000007E0F00D41D
:10028000FFFFFFC7000000781E03630068006100E5
:1002900072006C00650073005F006D0065006E0009
:1002A0006700360038000000140363006800610036
:1002B00072006C00650073006900700000000403A8
:1002C000090409025B00030100A0FA09040000010F
:1002D00003010100092111010001224000070581ED
:1002E0000308000A090401000203000000092111AB
:1002F00001000122220007058203200001070503F7
:10030000032000010904020001030000000921117B
:10031000010001227B000705840320000A1201006E
:100320000200000008EDFE000001000102000106CD
:1003300060FF0961A1010962150026FF0095207583
:100340000881020963150026FF00952075089102B7
:10035000C005010902A10185020901A100050919D1
:10036000012908150025019508750181020501097B
:100370003009311581257F950275088106093815E8
:1003800081257F950175088106050C0A38021581C3
:10039000257F950175088106C0C005010980A1016E
:1003A000850319012AB700150126B70095017510BC
:1003B0008100C0050C0901A101850419012AA002D0
:1003C000150126A002950175108100C005010906DE
:1003D000A101050719E029E7150025019508750118
:1003E00081029501750881010507190029FF150093
:1003F00026FF009506750881000508190129059555
:100400000575019102950175039101C011241FBE6C
:10041000CFEFDAE0DEBFCDBF04B603FE27C0809188
:100420006A0290916B02A0916C02B0916D028730CC
:10043000904BA740B04BD1F410926A0210926B021D
:1004400010926C0210926D0214BE84B7877F84BF35
:100450000FB6F894A8958091600088618093600041
:10046000109260000FBEE0E0F8E3099511E0A0E013
:10047000B1E0EAECF6E402C005900D92AE39B107A6
:10048000D9F722E0AEE9B1E001C01D92AA36B20769
:10049000E1F70E9401120C942C230C94000081E0DF
:1004A000089581E008950C94510208950C9455022A
:1004B0001F93CF93DF9300D000D00F92CDB7DEB75C
:1004C00049835A836B833091A00189819A813111CC
:1004D0001DC06623B9F02223A9F00E94D508182F69
:1004E000682F89819A810E94810869817A81812F90
:1004F0000F900F900F900F900F90DF91CF911F9161
:100500000C94D2170E94AD08182FEFCF0E94D50887
:1005100069817A81EDCFFC01262F40815181628172
:10052000738184810C94580281E00895CF93DF9306
:10053000EC0160E00E948B02BE01DF91CF910C9430
:100540005602E1E0F0E0DF0102C0AA0FBB1F6A958E
:10055000E2F7BD01DF0102C0AA0FBB1F4A95E2F717
:100560006A2B01C0EE0F2A95EAF7962F982396136F
:1005700002C08E2B0895E0958E230895242F462FD8
:10058000682F8091BF010E94A1020C943E080E9436
:1005900087100E941B040C94A2100C94A51080E0FC
:1005A0000C941C04089508950E94D6070E94D3025B
:1005B0002FEF84E39CE0215080409040E1F700C0A1
:1005C00000000C940F1B0F931F93CF93DF938C01AC
:1005D00061E00E948B02EC01B8010E94F0148823B4
:1005E000D9F1B801CE010E9453028823A9F1B801C4
:1005F000CE010E943319882379F1B801CE010E94FF
:10060000E015882349F1B801CE010E949D18882386
:1006100019F1F8018281882361F0CA35FDE5DF0711
:1006200021F170F4C115ECE5DE07A1F0CE3DDC450B
:10063000C9F0C801DF91CF911F910F910C944F0227
:10064000CB358DE5D807A1F0CC35DD4591F70E947B
:10065000E80CEFCF0E94D40280E0DF91CF911F9190
:100660000F9108950E94A10DF7CF0E94F10CE1CFE8
:100670000E94F40CDECF0C94D2020E948F190E94CB
:100680001C040C943B03DF92EF92FF920F931F9395
:10069000CF93DF93E82FF0E0E852FE4FD490282F5D
:1006A00026952695269530E0F901E858FD4F0491EE
:1006B000877010E0082E02C0159507950A94E2F79E
:1006C00001701127F901E859FD4FE490F12C082E33
:1006D00002C0F594E7940A94E2F791E0E922FF243E
:1006E000F901E85AFD4FC491D0E002C0D595C795F5
:1006F0008A95E2F7C170DD270115110519F081EE29
:100700000E946704E114F10419F086EE0E94670468
:100710008D2D0E946605EF2819F086EE0E94F904DF
:10072000012B19F081EE0E94F904CD2B51F08CE2DF
:10073000DF91CF911F910F91FF90EF90DF900C947C
:100740006605DF91CF911F910F91FF90EF90DF90A1
:100750000895EF92FF920F931F93CF93DF93EC01D5
:10076000162F0AE08881882309F454C0813009F0EB
:100770004EC08981813099F47E0122E0E20EF11CA5
:100780008A810E946605E7012196812F815050F3EE
:10079000EFE9FFE03197F1F700C00000F7CF8230BA
:1007A00041F47E0182E0E80EF11C8A810E94670418
:1007B000EACF833041F47E01E2E0EE0EF11C8A8143
:1007C0000E94F904E0CF843011F02196DDCF2A8118
:1007D000229690E080E0AE014F5F5F4F2053330BD5
:1007E0002A30310548F0019778F2EFE9FFE03197C0
:1007F000F1F700C00000F7CF089FB001099F700D0E
:100800001124C901860F971F2981EA01E4CF0E94B4
:100810004303BACFDF91CF911F910F91FF90EF90DB
:10082000089560E00C94A90308950C94140481E0E9
:1008300008950C9417040895CF93C82F0E941504AF
:100840008C2FCF910C941904CF93DF93CDB7DEB7E3
:100850002B970FB6F894DEBF0FBECDBF4F835887DE
:1008600069877A878B8761110E94430C1E821D82E3
:1008700085E0FE013796DE01119601900D928A9572
:10088000E1F78C819D81892B89F449815A816B81A3
:100890007C818D819E810E94640B2B960FB6F8940B
:1008A000DEBF0FBECDBFDF91CF91089589819A81C0
:1008B00089238F3F51F3CE0101960E94940281114A
:1008C000E4CFEBCFFC01808191810C940209CF939E
:1008D000C82F882309F48BC08238C1F40E948F1975
:1008E00081FD85C089E30E94FE0B0E94660C2FEFFC
:1008F00081EE94E0215080409040E1F700C000007C
:1009000089E30E94050CCF910C94660C8338A1F406
:100910000E948F1980FD6BC083E50E94FE0B0E9430
:10092000660C2FEF81EE94E0215080409040E1F77B
:1009300000C0000083E5E5CF8438A1F40E948F1940
:1009400082FD55C087E40E94FE0B0E94660C2FEFCB
:1009500081EE94E0215080409040E1F700C000001B
:1009600087E4CFCF8CEF8C0F813A90F46C2F80917D
:100970000201909103010E94F219882329F08C2F23
:100980000E94050C0E94660C8C2F0E94FE0BBBCFB0
:1009900080E28C0F883048F4C77081E001C0880F76
:1009A000CA95EAF70E94260CAECFEBE5EC0FE330D8
:1009B00040F4F0E0E95BFE4F808190E0CF910C9431
:1009C000B419E8E5EC0FE73150F4F0E0EE0FFF1F4B
:1009D000E75EFE4F80819181CF910C94CA19C03F90
:1009E00030F08C2F0E949112CF910C946413CF9110
:1009F0000895882309F452C0823871F40E948F1937
:100A000081FF4CC089E30E94FE0B0E94660C89E3C3
:100A10000E94050C0C94660C833859F40E948F19BF
:100A200080FF3CC083E50E94FE0B0E94660C83E5BC
:100A3000EFCF843859F40E948F1982FF2FC087E4CA
:100A40000E94FE0B0E94660C87E4E2CF9CEF980F99
:100A5000913AF0F290E2980F983050F4877091E05C
:100A600001C0990F8A95EAF7892F0E942C0CD2CFEA
:100A70009BE5980F933020F490E080E00C94B4193B
:100A800098E5980F973120F490E080E00C94CA1913
:100A9000803F20F00E94EB120C94641308951F9382
:100AA000CF93DF93182FEB010E946704209731F456
:100AB000812FDF91CF911F910C94F9048FE99FE072
:100AC0000197F1F700C000002197F0CF70E060E0DF
:100AD000893311F460E570E00C944F05882321F010
:100AE0000E94260C0C94660C0895882321F00E9425
:100AF0002C0C0C94660C0895BF92CF92DF92EF926B
:100B0000FF920F931F93CF93DF936C01D62FC72FC4
:100B1000FC011281F580F2949FE0F9220E941C0CE6
:100B2000E82E8823B9F0E12E1123A1F08C2F807FCD
:100B3000803421F080E28D0F8830D0F08091440223
:100B400082FD16C082E00E94B70C0E941C0C91E04E
:100B5000E82EE926BC2EB2948FE0B822FBE0FB150C
:100B600008F468C0EB2DF0E0E25DFC4D0C94BC2273
:100B7000E12CF0CF0C2F0F70C07F11F00295007F99
:100B8000112399F0002359F080E28D0F883010F086
:100B9000D11107C0802F0E94260C0E94660C8D2F59
:100BA00041C0802F0E94360CF8CF8D2F0E94F9048F
:100BB000002309F43FC080E28D0F883010F0D1117E
:100BC00004C0802F0E942C0C03C0802F0E943C0C7C
:100BD0000E94660C2FC00C2F0F70C07FC03211F026
:100BE0000295007FDD2381F0D13009F469C0112323
:100BF00009F473C0FF2009F469C0F601858180FF04
:100C0000CECF8F70858362C08091440282FF38C04E
:100C1000112359F0002329F0802F0E94260C0E94F6
:100C2000660C80E00E94670405C080E00E94F90421
:100C30000111C7CFEB2DE850FF0B349720F40E9431
:100C40008F190E941C04EE2009F44DC10E94180C5B
:100C500080FD49C1F60112820E94120C0E944F08C9
:100C6000C6010E9494070E94120CDF91CF911F9140
:100C70000F91FF90EF90DF90CF90BF900C945A08A7
:100C8000112389F0F11006C00E94490C802B0E94AC
:100C90006E05D0CF21E0F212F7CF0E94490C802BD5
:100CA0000E944F0CC7CFF11006C00E945C0C802F31
:100CB0000E947505BFCF31E0F31609F4BBCFF5CF25
:100CC000112331F085E08F1508F4B4CF802FDFCFEA
:100CD00094E09F1508F4AECFEACFFF2041F3D9335B
:100CE00049F4FFEF27EE33E0F15020403040E1F7C8
:100CF00000C000008D2F0E94F9049CCF8C2F869598
:100D00008695837069F0813009F094CF8D2F9C2FE8
:100D10009370111102C090E080E00E94CA198ACF3E
:100D20008D2F9C2F9370111102C090E080E00E94E3
:100D3000B41980CF8D2F112329F00E9491120E94A7
:100D4000641378CF0E94EB12FACF8C2F837079F561
:100D5000111170CF4D2F429546954770440F440FA7
:100D60008D2F8F70042E01C0880F0A94EAF72D2F63
:100D70002071D4FF07C02FE030E001C0220F4A9558
:100D8000EAF72095C695C695C370822BC23049F00C
:100D900058F4C13019F00E9430084CCF0E942B0843
:100DA00049CF0E94350846CF0E94290843CF869537
:100DB000112311F08C2F8170882309F43BCF4D2F24
:100DC000429546954770440F440F8D2F8F70042E27
:100DD00001C0880F0A94EAF72D2F2071D4FF07C0B5
:100DE0002FE030E001C0220F4A95EAF72095C69522
:100DF000C695C370822BC23049F058F4C13019F047
:100E00000E94760817CF0E94710814CF0E947B08B9
:100E100011CF0E943E080ECFCF70112329F08C2FE6
:100E20000E944F088D2F33CF8D2F0E9475058C2F78
:100E30000E945A08FFCED23F51F160F4D03FB9F082
:100E4000D13F81F0112309F449C0F110A8CE8C2FB5
:100E50008F7121C0D33F11F1D43FA1F7809144029B
:100E600082FF26C08C2F8F71112311F314C0112320
:100E700049F084E08F1508F4DDCE8C2F8F710E942D
:100E80006608D8CE95E09F1508F4D4CEF6CF8C2F07
:100E90008F711111CDCF0E944F08CCCE112329F0B4
:100EA0008C2F8F710E944708C5CE0E944408C2CE85
:100EB000112349F0CF718C2F0E944F0863E08C2FD3
:100EC0000E949C0CB7CE81E00E94B70CE1E0EF15C8
:100ED00008F0B0CE82E00E94B70CACCEF110FFCE8D
:100EE0008C2F8F71A5CFDF91CF911F910F91FF9024
:100EF000EF90DF90CF90BF9008950F931F93CF9303
:100F0000DF93EC01688179818A810E940C098C0150
:100F10000E9480080E942808B801CE01DF91CF917D
:100F20001F910F910C947C05CF93DF93EC018B8183
:100F30009C81892B29F08881998189238F3F59F4DD
:100F4000DF91CF910895CE010E947D07CE01DF9100
:100F5000CF910C949602CE010E94E3028111F3CF4F
:100F60000E941C0C882361F38A81882349F38091B5
:100F7000440282FDE5CF82E0DF91CF910C94B70C63
:100F800090E080E00E94B41990E080E00E94CA19CD
:100F90000E94430C0E94460C0E94660C0E948B1417
:100FA0000C9464130E940C0C0C94C0070E94330C28
:100FB0000C94D207E92FE295EF70E250EE3070F416
:100FC000F0E0E65CFC4D0C94BC22803F19F020F46C
:100FD000883E20F481E00895843FE1F380E00895A5
:100FE000883EC0F3813FD1F7F5CF93FB882780F986
:100FF0000895FC01808191810E9402090C94DA0716
:10100000CF93DF9300D000D00F92CDB7DEB70F9013
:101010000F900F900F900F90DF91CF910895CF9385
:10102000DF9300D000D000D0CDB7DEB726960FB644
:10103000F894DEBF0FBECDBFDF91CF910895089524
:101040000C941F080E9420088093C0010C94C007D4
:1010500008950C9422089091C001892B0C942208C9
:101060009091C00189230C9422089091C001892796
:101070000C9422080C941F080C943A080E943C0817
:101080008093BF010C94C00780E00C943E0891E06F
:1010900001C0990F8A95EAF7892F0C943E0821E048
:1010A00030E001C0220F8A95EAF78091BF01822BC0
:1010B0000C943E0821E030E001C0220F8A95EAF747
:1010C00020958091BF0182230C943E0821E030E0FE
:1010D00001C0220F8A95EAF78091BF0182270C9404
:1010E0003E089091BF01892B0C943E089091BF015E
:1010F00089230C943E089091BF0189270C943E08E7
:1011000008952FE0929F800D1124982F977041E051
:1011100001C0440F9A95EAF786958695869593E0E7
:10112000899FF0011124EF55FE4F90E080E070E0C0
:101130005191DF0111979B01082E02C0369527952A
:101140000A94E2F7217021952527242325272C9343
:1011500001968330910561F708952FE0929F800DED
:101160001124982F977086958695869523E0829F07
:10117000F0011124EF55FE4F50E040E080E0219156
:1011800030E0092E02C0369527950A94E2F72170C7
:101190003327042E01C0220F0A94EAF7822B4F5FF7
:1011A0005F4F4330510559F70895CF92DF92FF9278
:1011B0000F931F93CF93DF936C010091BF01809138
:1011C000C001082BC7E0D0E010E0FC2EC8010C2EB7
:1011D00002C0959587950A94E2F780FD0CC021978F
:1011E000A0F7F12C8F2DDF91CF911F910F91FF90E0
:1011F000DF90CF900895B6018C2F0E948F0F01973A
:1012000071F3F0CFCF93DF93EC010E94D508BE01BC
:10121000DF91CF910C948F0F1F93CF93DF93EB014E
:101220009091A001992331F0CB01DF91CF911F91D3
:101230000C940209882379F0CB010E94D508182F5D
:10124000682FCE010E948108BE01812FDF91CF91CE
:101250001F910C948F0FCB010E94AD08182FF4CF73
:101260001F93CF93DF93C091C10116E08091C2011B
:101270008C1304C0DF91CF911F910895D0E01C9F83
:10128000F0011D9FF00D1124ED53FE4F408151815F
:1012900062817381848195810E940F082196C770B5
:1012A000E5CF4091F3015091F4016091F501709107
:1012B000F6018091F7019091F8010C940F08FF92CC
:1012C0000F931F93CF93DF938091F801807FD1F428
:1012D0008091F5018823B1F08091C1011091C20184
:1012E0006091F3017091F401A091F601B091F701C2
:1012F000062F0723C0910001D091010196E0F92E3D
:10130000181306C0DF91CF911F910F91FF900895A0
:1013100090E0109711F00F3F19F401968770F0CF0D
:10132000F89E9001F99E300D1124F901ED53FE4F06
:1013300041814713F2CF40814613EFCF42814111E3
:10134000ECCF438154814A1B5B0B4C175D0728F798
:101350008091F8018F7080618093F801F901E85362
:10136000FE4F80818F708061808383EF91E00E94C7
:101370009407DF91CF911F910F91FF900C9430094A
:10138000AF92BF92CF92DF92EF92FF920F931F9393
:10139000CF93DF93CDB7DEB761970FB6F894DEBF7A
:1013A0000FBECDBF8C0185E0F801DE011D960190D6
:1013B0000D928A95E1F7F801E28083EFC82E81E073
:1013C000D82E6091F6017091F7016115710509F44D
:1013D0005FC19091F3012091F401892F82238F3F07
:1013E00009F456C140815181A380B480F090F50189
:1013F000F501E61BF70BBF01E0910001F09101013F
:10140000FF2009F4F6C08091F801382F307F6E1765
:101410007F0708F0AFC0311179C0FE2C251323C01F
:10142000941321C0E1101FC08F7080618093F80178
:101430000E945109C6010E9494078091F801F801A9
:1014400085838F2D61960FB6F894DEBF0FBECDBF9A
:10145000DF91CF911F910F91FF90EF90DF90CF9090
:10146000BF90AF900895AB2829F0842F85238F3F3C
:1014700009F027C180E0F82FF170DF2E80FF3CC01B
:101480008091C1012091C20136E0821315C04D87C1
:101490005E878D859E850E940209292F22952F70D7
:1014A0002230F0F0243018F59F70F1F0F8019581AA
:1014B000907FD1F4D12C1EC090E0389FF001399F6D
:1014C000F00D1124ED53FE4F6181651306C060815C
:1014D000641303C062816E110FC001968770D5CF6F
:1014E0009F7011F0882331F3805E883018F3C801B3
:1014F0000E949407FD2CA5CFEE2009F4A2CF809185
:10150000F80181608093F801F12C9BCF251306C070
:10151000941304C0F801EE2009F487C0C8010E94AA
:10152000F907882319F1EE2009F18091F801803242
:1015300070F02091F3013091F40138872F831986E0
:10154000BB86AA868C87CE0107960E94940786E008
:10155000F801A3EFB1E001900D928A95E1F70E94A6
:101560005F090E945109FF24F3946BCFC8010E94C8
:101570009407F9CF311113C07A2DB98AA88A6E2D3C
:1015800089890E94000883EF91E00E94940786E019
:10159000F60111928A95E9F70E945109B5CF2513FA
:1015A0000FC094130DC0E1100BC0F8018583C80172
:1015B0000E94940786E0F60111928A95E9F741CFDF
:1015C000C8010E94F907882389F2EE2079F2809100
:1015D000F801803208F4BBCF2091F3013091F4017F
:1015E0003A8329831B82BD82AC828E83CE01019611
:1015F000ACCF6E177F0708F03EC0FE2CEE2009F43A
:10160000B5CF25132AC0941328C08091F80180FD1E
:101610001BC0982F907FC1F0F8018583903F31F077
:10162000982F907F905F8F70892B8583C8010E94CF
:10163000940786E0F801A3EFB1E001900D928A953E
:10164000E1F70E945109FDCE86E0F801A3EFB1E079
:1016500001900D928A95E1F7F4CEC8010E94F90736
:10166000811175CF8091F80181608093F801C801E4
:101670000E949407E6CE7A2DB98AA88A6E2D8989B0
:101680000E94000886E0F60111928A95E9F7D9CF09
:10169000EE2009F46BCFC8010E94F907F82E8823C9
:1016A00009F464CF86E0F801A3EFB1E001900D9258
:1016B0008A95E1F783EF91E00E9462040E945F093E
:1016C000C0CF81E08E25D7CE1F93CF93DF93CDB7C8
:1016D000DEB72C970FB6F894DEBF0FBECDBF4F8399
:1016E000588769877A878B879C87CE0107960E94E7
:1016F000C009882369F08A859B85892B39F04F8141
:101700005885842F85238F3F09F071C016E05FC094
:1017100086E0FE013796DE01119601900D928A95C2
:10172000E1F78A859B85892B89F38F8198858923A9
:101730008F3F61F32091C20130E0C90101968770AB
:1017400099274091C1014817190671F40E94D607E4
:101750001092C2011092C10186E0E3EFF1E0DF01D7
:101760001D928A95E9F7D2CF96E0929FD001939F80
:10177000B00D1124AD53BE4FFE01319601900D9274
:101780009A95E1F78093C2010E943009BFCF819FF3
:10179000C00111248D539E4F0E94C0098823E9F097
:1017A000E091C1011E9FF0011124ED53FE4F4081D5
:1017B000518162817381848195810E940F0880919B
:1017C000C10190E00196877099278093C1018091B3
:1017D000C1019091C2018913DACF2C960FB6F8940B
:1017E000DEBF0FBECDBFDF91CF911F9108956985F8
:1017F0007A858B859C850E940F0888CF682F809101
:101800000201909103010C94281A682F8091020123
:10181000909103010C942A1A809102019091030186
:101820000C942C1A8091F9018595859585950895DC
:101830008091F901877008959091F901977081E086
:1018400009F480E0089580910502089590910502C1
:10185000892B809305020895809590910502982325
:101860009093050208951092050208959091040244
:10187000892B809304020895809590910402982307
:1018800090930402089510920402089510920302A6
:1018900008958091FA01089508950C944C0C90914C
:1018A000440292FD08C09091FA01981721F08093AC
:1018B000FA010C944D0C08958091FA01882329F0C7
:1018C0001092FA0180E00C944D0C0895E091020111
:1018D000F0910301809105028083E0910201F09173
:1018E0000301808190910402892B8083E0910201A1
:1018F000F0910301808190910302892B8083909164
:10190000FA01992381F0E0910201F09103018081B5
:10191000892B808380910201909103010E94E0193C
:1019200081110E945C0C80910201909103010C9442
:101930009B1908950C94990C9091440292FD10C04B
:1019400098E0899F90011124622B6093F9010E9415
:101950004F088091F9018595859585950C949A0C91
:101960000C944F081092F90180E00C949A0C90911D
:10197000F901809589238093F901282F277091F42C
:10198000282F082E000C330B9217130659F0909154
:10199000440292FD07C08595859585950E945A0859
:1019A0000C94B20C08959091440292FB222720F9E6
:1019B000281769F080FB92F99093440280914302CA
:1019C000909144020E941E0D82E00C94B70C089581
:1019D0008091440282FB882780F991E089270C944A
:1019E000D30C81E00C94D30C80E00C94D30C6FEFFB
:1019F0007FEF90E080E00C94162390E080E00E945E
:101A0000F222893E9E4F11F40C94991480E00895BF
:101A100082E090E00C94EA2283E090E00C94EA22C9
:101A2000CF9384E090E00E94EA22C82F82E290E007
:101A30000E94EA22982F8C2FCF910895CF93C92F1F
:101A4000682F84E090E00E94F8226C2F82E290E000
:101A5000CF910C94F822AB01BC018FE090E00C9484
:101A60000A23AB01BC0183E190E00C940A2360E0FF
:101A700070E0CB010C94310D60E070E0CB010E946E
:101A80002B0D0C94370D69EE7EEF90E080E00E9404
:101A9000162360E082E090E00E94F82260E083E09C
:101AA00090E00E94F8221092C00160E084E090E093
:101AB0000E94F82260E082E290E00E94F82260E05A
:101AC00085E090E00E94F82260E086E090E00E94CD
:101AD000F8226FEF87E090E00E94F82240E050E0AB
:101AE000BA0188E090E00E940A2360E08DE090E077
:101AF0000E94F82240E050E0BA0188E190E00E94A4
:101B00000A2360E087E190E00E94F82240E050E084
:101B1000BA018CE190E00E940A2370E060E080E26C
:101B200090E00E94162340E050E0BA0188E190E086
:101B30000E940A2380E00E94B2140E94D8140C94E0
:101B40003C0D0C94430D682F8EE090E00C94F8222D
:101B50000E94D01A609315027093160280931702A8
:101B600090931802609311027093120280931302F3
:101B700090931402089585B7806885BF85B7806803
:101B800085BF0895089508950C94C20D08950C948E
:101B9000C60D0E94BB0D8DE690E10E9485190E9442
:101BA000C30D0C94C40D81E008950C94D30D0895D9
:101BB00008950E94D70D0C94D80D0E94BB1A0E9464
:101BC000E7140E945B110C94C70D8F929F92AF9205
:101BD000BF92CF92DF92EF92FF920F931F93CF931A
:101BE000DF93CDB7DEB72A970FB6F894DEBF0FBEEE
:101BF000CDBF0E94701181110E94A80D57E0852E63
:101C000052E0952E10E000E0A02E802F0E94A71039
:101C10006C01F401E190F1904F01E816F90609F426
:101C20005CC08091190281FD0E94B010C7018C2513
:101C30009D25B12CEE24E394F12C9C012E213F2113
:101C4000232B09F444C00E94D50D8823A9F0BE823D
:101C5000AF82CE20DF2081E0CD2809F480E08887A4
:101C60000E94C41A8160782F9A8789874E815F818C
:101C700068858A850E942404000F111FF801E95F1E
:101C8000FD4F80819181E826F926F182E0820E9451
:101C90007F130E948F19909106028917A9F10E9463
:101CA0008F19809306022A960FB6F894DEBF0FBEF6
:101CB000CDBFDF91CF911F910F91FF90EF90DF90FB
:101CC000CF90BF90AF909F908F900C941C04B394D2
:101CD000EE0CFF1CFFE0BF12B0CF0F5F1F4F0530AF
:101CE000110509F091CF8FEF89838A831B820E94AF
:101CF000C41A8160782F9D838C8349815A816B81BE
:101D00008D810E942404C3CF2A960FB6F894DEBFBB
:101D10000FBECDBFDF91CF911F910F91FF90EF903C
:101D2000DF90CF90BF90AF909F908F900895CF930A
:101D3000DF930E94930FEC01811521E5920708F0D3
:101D400042C0811530E5930708F09DC0883E91059B
:101D500030F5803E910508F092C0883A910588F4EC
:101D6000853A910508F084C08130910509F487C057
:101D7000009709F484C0049708F081C0D0E0C0E067
:101D80007EC08F3B9105D0F7C85AD0E0CC0FDD1F45
:101D9000C65BDE4F0990D881C02DD46470C0811518
:101DA000904250F4C11581E0D80708F068C0C03FE8
:101DB000D10520F3D06563C0C11590E4D907F0F2D6
:101DC000DF70D06A5CC0811525E5920700F58115AA
:101DD00034E5930708F08BC0811543E5940708F0BC
:101DE00073C0C11582E5D80708F469C0CE018370BD
:101DF000992721E030E002C0220F331F8A95E2F7D5
:101E0000C695C69580E2C89FE001112454C0C11553
:101E100099E5D907A8F4C11528E5D20708F06CC0E8
:101E2000C11536E5D30708F0A9CF8C2F0E942A10E0
:101E3000C82FD0E0DC2FCC27CC27DF71D0621FC0A9
:101E4000C1154AE5D40708F45CC0CE01905681154F
:101E5000904208F093CF8D2F8F710E942A1090E04E
:101E6000982F882788279F719C012C2BE901E6CFAA
:101E7000C55AD0E0C858DE4FC881D0E0D064CE014A
:101E8000DF91CF910895E4E096958795EA95E1F783
:101E900083702C2F26952695237040E2249F900175
:101EA0001124382B8C2F8370C1E0D0E002C0CC0FFE
:101EB000DD1F8A95E2F7C22BD32BDC68E0CFDC2F45
:101EC000CC27C16FD06ADBCF8370992721E030E047
:101ED00002C0220F331F8A95E2F7C695C69590E29D
:101EE000C99FE0011124C22BD32BDA68C8CFD82FA9
:101EF000CC27C46FD06AC3CFDC2FCC27C06FD06A89
:101F0000BECF8C2F8F700E942A1034E0D695C795D3
:101F10003A95E1F7CF709C2FEC01D069B0CF0E94C9
:101F2000D2170C94970E82389105B1F1B0F4813339
:101F3000910509F475C048F48932910509F469C026
:101F40008A32910509F473C008958533910509F427
:101F500059C08933910501F10895833E9105A9F196
:101F600038F4803E9105F9F0823E910549F10895DB
:101F7000863E9105A9F1873E9105C9F1843E910500
:101F800019F52091440221FF1FC08091430284FD76
:101F900014C087EE90E00895209143022370A1F0D1
:101FA00080EE90E008952091430220FD47C03091DB
:101FB000440230FF09C024FF44C090E080E004C028
:101FC0002091430222FDF7CF08952091430222FD84
:101FD0003BC03091440230FDE3CF24FFF5CFEDCF7D
:101FE0002091430223FFF0CF24FDE7CFD2CF2091F1
:101FF000430223FD2CC03091440231FFEECF84EE2A
:1020000090E008952091430225FFDECF89E290E021
:1020100008952091430225FFD7CF85E390E00895EE
:102020002091430226FFD0CF8AE290E008952091CC
:10203000430226FFC9CF81E390E0089589E390E051
:10204000089583EE90E0089582EE90E0089586EE84
:1020500090E008959091430292FF06C0282F2871C6
:102060002830F9F4877F846093FF06C0282F2871F9
:102070002831F1F4877E84612091440220FF06C05C
:10208000382F38713830D9F4877F816021FF06C03E
:10209000282F28712831D1F4877E816194FD877EB5
:1020A0000895282F24712430F9F68B7F8860DCCFC7
:1020B000282F2471243101F78B7E8861DDCF382FE2
:1020C0003171313019F78E7F8860E0CF282F217170
:1020D000213121F78E7E8861E1CF80E008950C9454
:1020E000F70C0E9470118FE39CE90197F1F700C093
:1020F00000000E94701180E00E94A71080FF04C0C1
:102100000E946F100C940F1B08950C9471100E9484
:10211000FD0C811102C00E94A10D0E94080D809348
:1021200019020E94100D90934402809343020E9472
:1021300085100E940C0D0E9429088091BF010C940B
:102140003C0808950C94A11008950C94A410E82F55
:10215000F0E0EE0FFF1FE15BFD4F8081918108955C
:10216000089580EA8A95F1F7089500C008950C94C7
:10217000B110F894E82FE295EF70F0E031A1282F2C
:102180002F7081E090E001C0880F2A95EAF7982F20
:102190009095932391A392A1892B82A3789408957B
:1021A000CF93DF93CAE8D1E089918F3F11F00E946D
:1021B000B91081E0CF38D807B9F7CBE7D1E08991E2
:1021C0008F3F11F00E94B91081E0CA38D807B9F7E3
:1021D000DF91CF910895AF92BF92DF92EF92FF927D
:1021E0000F931F93CF93DF938C01D62EC62FD0E091
:1021F000CE0186579E4F7C01FC0120812F3F09F4C0
:102200004DC0F894E22FE295EF70F0E031A12F700D
:1022100081E090E001C0880F2A95EAF7932F982B70
:1022200091A392A18095892382A378940E94B510EE
:10223000EBE7F1E04AE851E021E030E0B12CA12CDD
:1022400061916F3FA9F1A62FA295AF70B0E0909673
:102250008C9190E06F7002C0959587956A95E2F732
:1022600080FD26C0C901A82AB92A220F331F4E17A4
:102270005F0731F7F70180818F3F11F00E94B9109D
:1022800061E0A114B10409F460E08D2D0E94B71043
:10229000CC0FDD1FC00FD11FB982A882DF91CF9173
:1022A0001F910F91FF90EF90DF90BF90AF90089536
:1022B00090E080E0D8CF0E94D0108AE0EFE4F2E016
:1022C000DF01982F1D929A95E9F7E5E4F2E0DF012E
:1022D0001D928A95E9F785E00E94BB110C94C70214
:1022E000FF920F931F93CF93DF93CDB7DEB72A975B
:1022F0000FB6F894DEBF0FBECDBF8E010F5F1F4F2C
:102300008AE0F80111928A95E9F7F12C6F2DC80146
:102310000E94EB10F394F5E0FF12F8CF4AE050E092
:10232000B80185E492E00E94DD22FF24F394009737
:1023300009F4F12C892B41F08AE0F801A5E4B2E020
:1023400001900D928A95E1F72F2D45E06FE472E040
:1023500085E492E00E94BC110E94CD028F2D2A9646
:102360000FB6F894DEBF0FBECDBFDF91CF911F91A6
:102370000F91FF9008950895FF920F931F93CF93AD
:10238000DF93F82E092F162FD72FC42F222349F0C1
:1023900081E080931C020E94C41A90931B028093D8
:1023A0001A0280911C028823A1F080911A02909158
:1023B0001B020E94DC1A059760F0EF2DF02FA12F71
:1023C000BD2F90E080E0D0E08C179D0744F0109284
:1023D0001C02DF91CF911F910F91FF9008952191E1
:1023E00031912D933D930196EFCF0E94F71C0E94EF
:1023F000DD0D0C94031D0E94071D0E94E50D0C9439
:10240000211D0E944D1A0E94DE1C0E94C90D0E94CF
:10241000F5110E94FB110E94D90DFBCF8091230280
:1024200080FF12C06091090185E0689FB00111240E
:10243000759567957595679560387105A8F561156F
:102440007105A1F1862F089581FF09C060910901EE
:1024500085E0689FB001112475956795EDCF609177
:10246000090182FD0AC0809122028823D1F0909157
:10247000080160910901891728F085E0689FB00183
:102480001124DACF869FB001112485E0869F900148
:10249000879F300D1124692F70E0C9010E94A82286
:1024A000CBCF65E070E0CECF8FE7089581E008954F
:1024B0008091230280FF0CC06091050170E075954A
:1024C0006795759567956115710549F1862F089592
:1024D00081FF06C06091050170E075956795F3CFA7
:1024E0006091050182FD0BC0909121029923A1F01A
:1024F0006091040180910501961738F0682F70E013
:102500006038710500F38FE70895899FC001112499
:1025100070E00E94A822F4CF61E070E0D7CF81E0A4
:102520000895803F31F40E940E1281958093270216
:102530000895813F19F40E940E12F8CF823F31F4C2
:102540000E940E128195809326020895833F19F40C
:102550000E940E12F8CF893F29F40E9458128093EE
:10256000280208958A3F21F40E9458128195F7CFDE
:102570008B3F31F40E94581281958093290208956F
:102580008C3F19F40E945812F8CF9CE0980F9530B8
:1025900070F4845F990B21E030E001C0220F8A952E
:1025A000EAF780912502822B8093250208958D3FC2
:1025B00031F48091230281608093230208958E3F3D
:1025C00021F4809123028260F7CF8F3FB9F7809189
:1025D00023028460F1CF40912602803F59F480911C
:1025E000270287FF0DC01092270241110BC01092E5
:1025F000220208C0813F81F48091270218169CF3C3
:10260000442381F08091280290912902892B09F0BE
:102610005AC0109221020895823F49F447FFF0CF3B
:1026200010922602809127028111ECCFE0CF833FE8
:1026300019F41416ACF3E4CF90912802893F29F4E1
:102640001916F4F610922802DBCF8A3F19F497FF8F
:10265000D7CFF8CF909129028B3F29F497FFD0CFA5
:1026600010922902CDCF8C3F19F41916CCF3C8CFA4
:102670009CE0980F953090F4845F990B21E030E056
:10268000B90102C0660F771F8A95E2F7CB018095EA
:1026900090912502892380932502B2CF8D3F31F49A
:1026A000809123028E7F80932302AACF8E3F21F454
:1026B000809123028D7FF7CF8F3F09F0A1CF8091CA
:1026C00023028B7FF0CF08950E94C41A9C01909141
:1026D000260280912702982B21F03093200220932C
:1026E0001F029091280280912902982B21F03093AB
:1026F0001E0220931D0284E292E00C94A619EF9230
:10270000FF920F931F93CF93DF9300D000D000D0A0
:10271000CDB7DEB786E0E4E2F2E0DE01119601908B
:102720000D928A95E1F7E0902602F0902702009141
:10273000280210912902109226021092270210926C
:102740002802109229028E2D8F2991F080911F026C
:10275000909120020E94DC1AAC01909122029923F0
:1027600009F43FC080910A018417150608F447C098
:10277000802F812B91F080911D0290911E020E946A
:10278000DC1AAC0190912102992309F477C0809161
:1027900006018417150608F47FC0809126029091E7
:1027A0002702892B90912802892B90912902892B4D
:1027B00011F00E94641386E0FE013196A4E2B2E0BB
:1027C00001900D928A95E1F726960FB6F894DEBF38
:1027D0000FBECDBFDF91CF911F910F91FF90EF9072
:1027E000089520910B018AE0289F9001112424175D
:1027F000350708F0BDCF9F5F9093220202C09F3F34
:10280000D1F7EE2059F00E940E129FEF1E140CF427
:1028100091E0899F802D112480932602FF2059F09A
:102820000E940E129FEF1F140CF491E0899F802DDF
:1028300011248093270230912602332309F498CF84
:1028400020912702222309F493CF45EB3403C001E2
:102850001124992359F09093260245EB240390010B
:102860001124332339F03093270282CF81E0809303
:102870002602F3CF81E0809327027ACF20910701CF
:102880008AE0289F900111242417350708F085CF8E
:102890009F5F9093210202C09F3FD1F7002359F020
:1028A0000E9458129FEF10160CF491E0899F802D22
:1028B000112480932802112359F00E9458129FEF8F
:1028C00011160CF491E0899F802D11248093290228
:1028D00030912802332309F460CF2091290222236A
:1028E00009F45BCF45EB3403C0011124992359F05F
:1028F0009093280245EB240390011124332339F0EF
:10290000309329024ACF81E080932802F3CF81E0FF
:102910008093290242CF86E0E4E2F2E0DF011D92DB
:102920008A95E9F710922202109221021092230256
:10293000089583E290E00E94EA22813289F484E2E1
:1029400090E00E94EA22823159F485E290E00E94F0
:10295000EA2291E0883109F090E0892F8170089592
:1029600080E0FCCFCF93C82F6FEF811161E283E24B
:1029700090E00E94F8226FEFC11162E184E290E0E2
:102980000E94F8226FEFC11168E185E290E0CF91DB
:102990000C94F822089586E290E00E94EA22682FC3
:1029A00070E090E080E0089586E290E00C94F822D8
:1029B00080E00E94B21460E070E0CB010E94D41469
:1029C0000E944A170E94361881E00C94B2140E94AB
:1029D000CA140E949914811102C00C94D81408954D
:1029E000CF93FB01C281CC2309F19C0122513F45C9
:1029F0002031310520F582510E944618C0E08C2F0D
:102A0000CF91089581E00E944F0843E062E081E0A9
:102A10000E94BE02F3CF81E00E945A0843E062E0C8
:102A200081E00E94BE02EBCF82E0F6CF8031FFE56D
:102A30009F0789F381319F45B9F3C1E0E0CF803131
:102A4000EFE59E07F9F281319F45C9F682E0DBCFC1
:102A50002FEFFC0120830895EF92FF920F931F93B5
:102A6000CF93DF93EC01062FE881E150E33108F0CA
:102A70005EC0F0E0E85BFC4D0C94BC22198289E05A
:102A80008A83602FCE01DF91CF911F910F91FF902C
:102A9000EF900C94B71B8981823069F0833071F01C
:102AA0008130D9F40E94D01A0E94C2226A837B83AB
:102AB0008C839D83E6CF0E94CB14F6CF7E0110E07D
:102AC000812F0E94A710F701928383831F5FF2E09A
:102AD000EF0EF11C1530A1F7D4CF602FCE010E946C
:102AE0002815CFCF89818230C1F76A817B818C81A3
:102AF0009D810E94C2220E94D414C3CF4B816A815F
:102B000089810E941C179827892798279D838C8389
:102B1000B8CF2C813D813227232732274B816A8110
:102B200089810E943517ADCF0E944A17AACF8FEF37
:102B30008883A7CF0E94DF178983A3CF0E94E11764
:102B40009827892798279A8389839BCF6B8170E088
:102B500089819A81AE014C5F5F4F9827892798271A
:102B60000E94E4178ECF6B8170E089819A81AE015B
:102B70004C5F5F4F9827892798270E940B1881CFB9
:102B80000E9436187ECF0E940A17D6CF6B8170E064
:102B900089819A81AE014C5F5F4F982789279827DA
:102BA0000E9482176ECF6B8170E089819A81AE019D
:102BB0004C5F5F4F9827892798270E94A81761CFFD
:102BC000CF93DF93EC01FB018281882309F420C1BC
:102BD000C330FDE5DF07C8F5CA3F9CE5D90730F4EF
:102BE0009E0122503C452431310598F50E94100D7C
:102BF0009093440280934302C031FCE5DF0709F45F
:102C0000E0C008F061C0C8309CE5D90709F4CBC02A
:102C100088F5C430FCE5DF0709F4B3C0E8F4C2303E
:102C20009CE5D90709F4A7C0809143028260C330B4
:102C3000DC4509F4A3C080914302909144020E94B4
:102C40001E0D0E94D60780E004C0C136EDE5DE0708
:102C500069F2DF91CF910895809143028061C6307F
:102C6000FCE5DF0709F48AC008F48FC080914302B5
:102C7000806284C0809143028D7FCC309CE5D9076F
:102C800009F47CC070F4809143028C60CA30FCE58A
:102C9000DF0709F473C008F48AC0809143028E7F75
:102CA0006DC080914302877FCE309CE5D90709F43F
:102CB00065C0809143028B7FCF30DC4508F45EC055
:102CC000809143028F7E5AC0CC3FFCE5DF0709F4B8
:102CD00074C040F5C4319CE5D90709F48AC058F4A2
:102CE000C231FCE5DF0709F474C008F46EC08091BE
:102CF0004302837F43C0CA3F9CE5D90709F449C01A
:102D000008F04DC0C531DC4509F095CF80914302F4
:102D100082FB992790F921E0922790FB82F990FBA2
:102D200083F92CC0C1158DE5D80709F458C088F483
:102D3000809144028360CE3FECE5DE0769F180912B
:102D400044028D7FCF3FDC4538F1809144028C7F77
:102D500023C0C2308DE5D80709F458C008F452C02A
:102D6000C136DD4509F067CF90914302892F8F7EF0
:102D700094FF806103C0809143028160809343028D
:102D80005ACF809143028460F9CF809143028860DA
:102D9000F5CF809144028160809344024CCF8091B2
:102DA00044028260F9CF809143028064E7CF0E94A1
:102DB000D607809143028068E1CF809144028E7FE4
:102DC000EBCF809143028F7DD9CF809143028F7BDF
:102DD000D5CF0E94D607809143028F77CFCF8091C5
:102DE0004402982F909591708E7F892B90FB81F9EA
:102DF000D3CF0E94D60790914302892F97FB87F982
:102E00008058BCCF81E00E94A30D15CF80E0FBCF9E
:102E100081E01FCF84E0089550E0440F551F9EE1EC
:102E2000699F400D511D112496E9899F400D511D48
:102E30001124CA01879608950F931F93CF93DF93B0
:102E40000E940C178C010E94EA22C82FD0E0DC2FD0
:102E5000CC27C80101960E94EA229E01282BC901B5
:102E6000DF91CF911F910F9108950F931F93CF93EF
:102E7000DF93122F032F0E940C17EC01602F0E948A
:102E8000F822612FCE010196DF91CF911F910F9112
:102E90000C94F822AF92BF92CF92DF92EF92FF9202
:102EA0001F93CF93DF938CEAC82E80E0D82ED0E01A
:102EB0007601C0E014C0F50125913491412F6C2FAB
:102EC0008D2F0E94351782E0A80EB11C1F5F1F30A6
:102ED00091F78EE1E80EF11CCF5FC53019F0570174
:102EE00010E0E9CFDF5F86E9C80ED11CD43001F7CE
:102EF000DF91CF911F91FF90EF90DF90CF90BF9027
:102F0000AF900895EF92FF920F931F93CF93DF93AB
:102F1000EC018A017C01E60EF71ECE018796CE15E4
:102F2000DF0539F4DF91CF911F910F91FF90EF9062
:102F30000895C83522E0D20740F40E94EA22F80141
:102F400080830F5F1F4F2196E8CFF8011082F9CFE1
:102F5000CF92DF92EF92FF920F931F93CF93DF9365
:102F60007C016A018C01060F171FEC01CE018796C8
:102F7000C017D10749F4DF91CF911F910F91FF90B6
:102F8000EF90DF90CF900895C83522E0D20740F44B
:102F9000FE01EE19FF09EC0DFD1D60810E94F82273
:102FA0002196E4CF462F843038F4753028F46F3002
:102FB00018F4672F0C941C1790E080E0089580E1CE
:102FC000089581E891E00895EF92FF920F931F9387
:102FD000CF93DF93EC018A017C01E60EF71ECE0150
:102FE00081589D4FCE15DF0539F4DF91CF911F91A8
:102FF0000F91FF90EF900895C13821E0D20740F47F
:103000000E94EA22F80180830F5F1F4F2196E7CFCD
:10301000F8011082F9CFCF92DF92EF92FF920F93D7
:103020001F93CF93DF937C016A018C01060F171F5A
:10303000EC01CE0181589D4FC017D10749F4DF91B3
:10304000CF911F910F91FF90EF90DF90CF90089557
:10305000C13821E0D20740F4FE01EE19FF09EC0D62
:10306000FD1D60810E94F8222196E3CFCF93DF936C
:10307000CFE7D2E060E0CE010E94F8222196C11590
:1030800084E0D807B9F7DF91CF910895DF92EF92EE
:10309000FF920F931F93CF93DF9300D000D0CDB753
:1030A000DEB7F82E8FE08F1540F08FEF93E00E948F
:1030B000EA220FE712E08823C1F00F900F900F90E3
:1030C0000F90DF91CF911F910F91FF90EF90DF90C4
:1030D0000895011584E0180781F3C8010E94EA22CF
:1030E000811101C0FA940F5F1F4FF110F2CF1982C6
:1030F0001A821B821C82DD24D39478018FEFE81A98
:10310000F80AC8010E94EA2289831A828823A9F258
:103110009FEF980F933078F48A83D9820E5F1F4F08
:10312000C7010E94EA228B83882339F2CE010196DF
:103130000E941104E2CF8701F9CFCF93DF93EB0117
:1031400086319C4511F50E94230C9A81992399F0B0
:103150008A7A91E009F490E090932A02811109C0E3
:1031600089E20E94FE0B0E94660C80E0DF91CF9105
:10317000089585E3F6CF80912A02811104C089E287
:103180000E94050CF0CF85E3FBCF81E0EFCF0F93DA
:103190001F93CF93DF93C42FD22FFC01828188230A
:1031A000C9F040932D020E94C41A90932C02809380
:1031B0002B0280E28C0F883008F050C0C77081E08D
:1031C00001C0880FCA95EAF7DF91CF911F910F9147
:1031D0000C946E0510912D02141335C080912B02B2
:1031E00090912C020E94DC1A883C910560F5C0E2A7
:1031F000CD0F1D17B9F080E2810F883040F41770B1
:1032000081E001C0880F1A95EAF70E947505C83061
:1032100048F481E09D2F977001C0880F9A95EAF7D6
:103220000E946E05802F0E946605C830B8F4D770E2
:1032300081E001C0880FDA95EAF7DF91CF911F9105
:103240000F910C94750580E28C0F883038F4C770AC
:1032500081E001C0880FCA95EAF7EFCFDF91CF91E7
:103260001F910F9108950F939C01CB01233F4CE5D3
:10327000340759F1A8F4283DFCE53F0701F1293D49
:103280004CE53407D1F1273D3C4591F406E221EEAF
:1032900041EE67ED7CE50E94C71880E00F9108952C
:1032A000253FFCE53F07E9F0B0F0263F3C45F9F04B
:1032B000FC018281882339F110922D02EFCF07E2C1
:1032C00025EE45EE68ED7CE5E6CF06E221EE40EE28
:1032D00063EF7CE5E0CF07E225EE44EE64EF7CE5AA
:1032E000DACF06E221EE42EE65EF7CE5D4CF07E2CD
:1032F00025EE46EE66EF7CE5CECF08E221E045EE16
:1033000069ED7CE5C8CF81E0C9CF90939F018093A0
:103310009E01089590933302809332020895E091C4
:103320003202F0913302309721F00190F081E02DCC
:10333000099480E00895E0913202F09133023097D1
:1033400021F00280F381E02D09940895E09132028A
:10335000F0913302309739F022E0DC012C930480A5
:10336000F581E02D099408952091300230913102C9
:103370002817390771F09093310280933002E09161
:103380003202F0913302309721F00680F781E02D70
:103390000994089520912E0230912F0228173907A1
:1033A00071F090932F0280932E02E0913202F091FF
:1033B0003302309721F00084F185E02D09940895BF
:1033C0009C012E5F3F4FAC01485F5F4F80E02417A8
:1033D000350709F40895F90191919F019923B9F3F3
:1033E0008F5FF5CF662349F0FC0132960896219154
:1033F000261729F0E817F907D1F780E0089581E052
:1034000008959C01FC0132969FEF80E041914617A0
:1034100051F09F3F19F4411101C0982F8F5F863002
:10342000A9F79F3F09F40895290F311D97FD3A959B
:10343000F90162830895FC013296089621912613C2
:1034400003C0DF0111971C92E817F907B9F7089537
:103450000C94011A0C941B1A029626E0FC0111929E
:103460002A95E9F7089508950C94331A811105C03F
:1034700081E0809334020C94341A82E0FACF83E026
:10348000809334020C94341A0C94361A81E08093A1
:1034900034020C94341A0C94461A089580916102F7
:1034A000843031F10E94CF021092350288E190E021
:1034B00020E40FB6F894A895809360000FBE209387
:1034C000600083B7817F846083BF83B7816083BFDF
:1034D0007894889583B78E7F83BF0FB6F894A895AC
:1034E00080916000886180936000109260000FBE40
:1034F000089508950895CF930E94791A0E9470113B
:103500000E947A1AC0E08C2F0E94A710892B31F4F8
:10351000CF5FC530C1F780E0CF91089581E0FCCF47
:103520000E94D6070C943D031F921FB61F921124D0
:103530008F939F93AF93BF9380913502811113C0F6
:103540008091590290915A02A0915B02B0915C0265
:103550004196A11DB11D8093590290935A02A093E8
:103560005B02B0935C02BF91AF919F918F911F90CE
:103570001FBE1F90189582E084BD93E095BD9AEF21
:1035800097BD80936E0008952FB7F89480915902EB
:1035900090915A02A0915B02B0915C022FBF0895F6
:1035A0002FB7F8946091590270915A0280915B0292
:1035B00090915C022FBF08959C014FB7F8948091C1
:1035C000590290915A02A0915B02B0915C024FBFE8
:1035D000821B930B089578941F921FB61F9211249B
:1035E0008F939F93AF93BF938091590290915A020A
:1035F000A0915B02B0915C020196A11DB11D809368
:10360000590290935A02A0935B02B0935C02BF915F
:10361000AF919F918F911F901FBE1F90189581E0D1
:103620008093E00080E28093D8001092C9008FE17F
:103630009EE40197F1F700C0000087E090EBDC0109
:1036400080936A0290936B02A0936C02B0936D0218
:1036500088E19CE00FB6F894A895809360000FBEB7
:1036600090936000FFCF80914102089508959C01DE
:1036700084E08093E9009FEF8091E800915085FD00
:1036800006C085ED8A95F1F700009111F5CF809184
:10369000E80085FF0CC050E040E066E070E0C90142
:1036A0000E94C81D8091E8008E778093E8000895FD
:1036B000CF93DF93EC0181E08093E9008FEF90914D
:1036C000E800815095FD06C095ED9A95F1F7000050
:1036D0008111F5CF8091E80085FF14C050E040E0F3
:1036E00068E070E0CE010E94C81D8091E8008E77EE
:1036F0008093E80088E0FE01A9E3B2E001900D921A
:103700008A95E1F7DF91CF91089580933602709307
:10371000380260933702809161028430F9F480931B
:10372000E9008FEF9091E800815095FD06C095ED7E
:103730009A95F1F700008111F5CF8091E80085FF9F
:103740000DC050E040E063E070E086E392E00E944C
:10375000C81D8091E8008E778093E8000895BC0131
:1037600084E00C94851BBC0183E00C94851BCF93F3
:10377000FC01603221F580916102843001F5C09135
:10378000E900CF702091EC00922F917020FD90E81D
:10379000C92B82E08093E9008091E80080FF0CC093
:1037A00050E040E060E270E0CF010E94C81D8091CF
:1037B000E8008E778093E800CF70C093E900CF9146
:1037C000089580916002811109C00E94A71F0E9484
:1037D00004208091E20084608093E20008951092BA
:1037E000600208950C94461A60915D0281E06111B7
:1037F00001C080E00C943F1A9091610281E0943006
:1038000009F080E060915D020C94441A42E061ECA2
:1038100081E00E94231F42E261EC84E00E94231FAA
:1038200042E261EC82E00E94231F42E260EC83E00E
:103830000E94231F9091610281E0943009F080E0A2
:1038400060915D020C94361A80916302833009F412
:1038500062C030F48130D9F1823009F49EC00895FD
:103860008A3009F48AC08B3009F470C0893009F0BD
:1038700051C080916202813209F04CC08091660291
:1038800090916702009719F0029709F043C0809168
:10389000E800877F8093E8008091E80082FF36C0CF
:1038A0009091F3008091F200029731F48091F10041
:1038B000813011F0863021F48091F1008093410233
:1038C0008091E8008B778093E8000C94571F8091DB
:1038D0006202813AF9F48091E800877F8093E800E2
:1038E0008091660290916702892B61F468E089E318
:1038F00092E070E00E94661E8091E8008B778093D2
:10390000E800089560E090E080E0F3CF80916102EC
:103910008111C2CF089580916202813AD9F78091D6
:10392000660290916702892BA9F78091E800877F52
:103930008093E8008091E80080FFFCCF809118011F
:103940008093F1008091E8008E77BDCF8091620274
:10395000813201F78091660290916702892BD1F63E
:103960008091E800877F8093E8000E94571F809134
:103970006402809318010C94D60780916202813210
:1039800049F68091E800877F8093E8000E94571FE6
:103990008091650280934202089580916202813A8B
:1039A00009F0B8CF8091E800877F8093E80080918C
:1039B000E80080FFFCCF80914202C2CF84B7877FAE
:1039C00084BF0FB6F894A8958091600088618093B9
:1039D0006000109260000FBE80E890E00FB6F8948F
:1039E00080936100909361000FBE0C944B1A0E946B
:1039F000A71F0E940420E2EEF0E0808184608083B3
:103A000078940C948D228CE091E00C948A1980912A
:103A100061028530A9F480916102853011F00C9427
:103A2000901A0E944E1A80915F028823A1F30E948F
:103A30007B1A882381F30E94B21D0E94D607EBCF28
:103A40000895CF93DF93CDB7DEB7A0970FB6F89464
:103A5000DEBF0FBECDBF80916102843009F583E0E7
:103A60008093E9008091E80082FF1AC08091E8000D
:103A700090E085FF09C050E040E060E270E0CE01D8
:103A800001960E94171E91E08091E8008B77809349
:103A9000E800992329F060E2CE0101960E942C15DE
:103AA000A0960FB6F894DEBF0FBECDBFDF91CF91C9
:103AB00008950C945B1D292F33272330310521F104
:103AC00068F42130310509F443C02230310509F48E
:103AD00044C090E080E030E020E026C02132310593
:103AE00051F122323105A9F76330710590F7FB01DE
:103AF000EE0FFF1FEE56FE4F2081318161577E4F42
:103B0000FB01808190E010C099278130910581F000
:103B1000009729F00297E9F6E8E8F2E002C0EEEB40
:103B2000F2E0849190E09F01FA01318320830895AF
:103B3000E8EAF2E0F6CF6330710558F6660F771FBA
:103B4000FB01E856FE4F2081318189E090E0ECCF07
:103B500082E190E02DE133E0E7CF8BE590E022ECCD
:103B600032E0E2CF80E189BD82E189BD09B400FE87
:103B7000FDCF8091D8008F7D8093D8008091E000A8
:103B800082608093E0008091E00081FDFCCF089589
:103B9000AF92BF92CF92DF92FF920F931F93CF937A
:103BA000DF936C01EB018A010E94761FF82E8111D0
:103BB00023C00115110539F0F80180819181C81BDE
:103BC000D90BC80ED91EB12CA12C2097A9F0809139
:103BD000E80085FD22C08091E8008E778093E800A0
:103BE00001151105A1F0F80180819181A80EB91E7F
:103BF000B182A08285E0F82E8F2DDF91CF911F91A9
:103C00000F91FF90DF90CF90BF90AF9008950E94EA
:103C1000761F8823D1F2F82EEFCFF60181916F0144
:103C20008093F1002197FFEFAF1ABF0ACECFAF927A
:103C3000BF92CF92DF92FF920F931F93CF93DF93A8
:103C40006C01EB018A010E94761FF82E811123C0BE
:103C50000115110539F0F80180819181C81BD90B3C
:103C6000C80ED91EB12CA12C2097A9F08091E80094
:103C700085FD22C08091E8008B778093E8000115D4
:103C80001105A1F0F80180819181A80EB91EB182C1
:103C9000A08285E0F82E8F2DDF91CF911F910F919B
:103CA000FF90DF90CF90BF90AF9008950E94761F55
:103CB0008823D1F2F82EEFCF8091F100F6018193A5
:103CC0006F012197FFEFAF1ABF0ACECFFC018091A1
:103CD00068029091690286179707A0F06115710537
:103CE00029F49091E8009E779093E80090E06115A8
:103CF000710551F4911108C08091E80082FF34C031
:103D000080E00895BC01F2CF809161028823C1F167
:103D10008530C1F18091E80083FD30C08091E800DA
:103D200082FDEACF8091E80080FFE1CF8091F3002F
:103D30002091F200382F6115710519F028303105F6
:103D400058F091E02830310509F090E02091E8002A
:103D50002E772093E800CBCF81918093F1006150C2
:103D600071092F5F3F4FE7CF80916102882341F0B7
:103D7000853041F08091E80083FFBECF81E0089557
:103D800082E0089583E00895FC018091680290919B
:103D9000690286179707A0F06115710529F48091D3
:103DA000E8008E778093E80090E06115710551F48A
:103DB000911108C08091E80082FF35C080E008952D
:103DC000BC01F2CF809161028823C9F18530C9F12D
:103DD0008091E80083FD31C08091E80082FDEACF48
:103DE0008091E80080FFE1CF8091F3002091F20004
:103DF000382F6115710519F02830310558F091E020
:103E00002830310509F090E08091E8008E778093AA
:103E1000E800CBCF84918093F10031966150710915
:103E20002F5F3F4FE6CF80916102882341F08530BC
:103E300041F08091E80083FFBDCF81E0089582E0EA
:103E4000089583E00895982F973028F08F7080931D
:103E5000E90081E008959093E900242F762F50E047
:103E6000981731F07091EC002091ED005091F00026
:103E700021FD02C09F5FE8CF3091EB003E7F309381
:103E8000EB003091ED003D7F3093ED003091EB0081
:103E900031603093EB007093EC002093ED00509371
:103EA000F0002091EE0027FDE5CF80E0089580919D
:103EB000620287FF13C08091E80082FF06C08091F4
:103EC000E8008B778093E80004C080916102811143
:103ED000F2CF0895809161028823D9F38091E800A0
:103EE00080FFF8CF8091E8008E77ECCF2091E4003E
:103EF0003091E50095E6A9012091EC00822F8170B8
:103F000020FF06C08091E80080FF06C080E0089591
:103F10002091E80022FD1AC080916102882389F077
:103F2000853089F08091EB0085FD0FC02091E40081
:103F30003091E50042175307F9F29150E1F684E021
:103F4000089582E0089583E0089581E008950E9435
:103F500015200E941D20E0EEF0E0808181608083CA
:103F6000E8EDF0E080818F77808319BCA7EDB0E0A9
:103F70008C918E7F8C9380818F7E808310926002E3
:103F800008950F931F93CF93DF930E9415200E94F3
:103F90001D20C8EDD0E088818F7788838881806874
:103FA000888388818F7D888319BC1092610210926A
:103FB0005D0210925F0210925E0200EE10E0F801C6
:103FC00080818B7F808388818160888342E060E08C
:103FD00080E00E94231FE1EEF0E080818E7F8083ED
:103FE000E2EEF0E080818160808380818860808360
:103FF000F80180818E7F8083888180618883DF9152
:10400000CF911F910F910895E8EDF0E080818F7EB0
:104010008083E7EDF0E080818160808384E082BF6F
:1040200081E0809360020C94C11FE8EDF0E0808194
:104030008E7F80831092E20008951092DA00109231
:10404000E10008951F920F920FB60F9211242F9343
:104050003F934F935F936F937F938F939F93AF9310
:10406000BF93EF93FF938091E10082FF0BC080919B
:10407000E20082FF07C08091E1008B7F8093E10026
:104080000E948C228091DA0080FF19C08091D800B4
:1040900080FF15C08091DA008E7F8093DA008091D6
:1040A000D90080FF96C080E189BD82E189BD09B455
:1040B00000FEFDCF81E0809361020E94E11B8091B0
:1040C000E10080FF19C08091E20080FF15C080915F
:1040D000E2008E7F8093E2008091E2008061809315
:1040E000E2008091D80080628093D80019BC85E0FE
:1040F000809361020E94F41B8091E10084FF2BC039
:104100008091E20084FF27C080E189BD82E189BD02
:1041100089B5982F917080FFFBCF8091D8008F7D5B
:104120008093D8008091E1008F7E8093E1008091A0
:10413000E2008F7E8093E2008091E20081608093B4
:10414000E20080915D02882309F449C084E08093F5
:1041500061020E94FC1B8091E10083FF29C08091D5
:10416000E20083FF25C08091E100877F8093E1001A
:1041700082E08093610210925D028091E1008E7F67
:104180008093E1008091E2008E7F8093E200809135
:10419000E20080618093E20042E060E080E00E9403
:1041A000231F8091F00088608093F0000E94F21B32
:1041B000FF91EF91BF91AF919F918F917F916F91FF
:1041C0005F914F913F912F910F900FBE0F901F90D5
:1041D000189519BC109261020E94EF1B70CF80915C
:1041E000E30087FD93E090936102B3CF1F920F929B
:1041F0000FB60F9211242F933F934F935F936F93BA
:104200007F938F939F93AF93BF93CF93DF93EF935E
:10421000FF93D091E900DF708091EC00C82FC1704E
:1042200080FDC0E81092E9008091F000877F8093C4
:10423000F00078940E943A211092E9008091F000F9
:1042400088608093F000CD2BCF70C093E900FF9180
:10425000EF91DF91CF91BF91AF919F918F917F911E
:104260006F915F914F913F912F910F900FBE0F90E3
:104270001F9018951F93CF93DF93CDB7DEB7AA9702
:104280000FB6F894DEBF0FBECDBF82E692E020915C
:10429000F100FC012193CF01F2E08A369F07B9F7C4
:1042A0000E94241C8091E80083FF1EC1809162025D
:1042B000909163029A3008F017C1E92FF0E0E55AB7
:1042C000FC4D0C94BC22803899F0823809F00CC166
:1042D000809166028F70873008F006C18093E900F4
:1042E0008091EB0085FB882780F91092E90006C0D9
:1042F00080915E0290915F02911182609091E8003E
:10430000977F9093E8008093F1001092F1008091E4
:10431000E8008E77E5C0882309F4D3C0823009F025
:10432000E3C0809164028111D6C0809166028F70D3
:104330002FEF280F263008F0D7C08093E900209196
:10434000EB0020FFC8C0933031F48091EB00806215
:104350008093EB00C0C09091EB0090619093EB00D4
:1043600021E030E001C0220F8A95EAF72093EA00AD
:104370001092EA008091EB008860EACF8111B4C00E
:10438000109164021F778091E3008078812B8093E5
:10439000E3008091E800877F8093E8000E94571F28
:1043A0008091E80080FFFCCF8091E30080688093DB
:1043B000E30082E0111183E08093610295C0805890
:1043C000823008F091C080916402909165028C3D2A
:1043D00023E09207A1F583E08A838AE289834FB7BD
:1043E000F894DE01139620E03EE051E2E32FF0E086
:1043F00050935700E49120FF03C0E295EF703F5FB8
:10440000EF708E2F90E0EA30C0F0C7968D939D93A9
:104410002F5F243159F74FBF8091E800877F809349
:10442000E8006AE270E0CE0101960E94661E80916B
:10443000E8008B778093E80057C0C096E7CF609183
:10444000660270916702AE014F5F5F4F0E94591D77
:10445000BC01892B09F448C09091E800977F9093A4
:10446000E80089819A810E94C41EE1CF8038E1F57D
:104470008091E800877F8093E80080915D028093BF
:10448000F10045CF811130C090916402923060F507
:104490008091E800877F8093E80090935D020E94FE
:1044A000571F80915D02882311F084E005C0809140
:1044B000E30087FDFACF81E0809361020E94061C31
:1044C00013C080916402813079F481E0933009F067
:1044D00080E080935F021092E9008091E800877F7E
:1044E0008093E8000E94571F8091E80083FF0AC074
:1044F0008091E800877F8093E8008091EB008062E4
:104500008093EB00AA960FB6F894DEBF0FBECDBF26
:10451000DF91CF911F9108950895CF93809161020B
:104520008823A1F0C091E900CF709091EC00892F11
:10453000817090FD80E8C82B1092E9008091E8001E
:1045400083FD0E943A21CF70C093E900CF91089576
:1045500097FB072E16F4009407D077FD09D00E9430
:10456000C92207FC05D03EF4909581959F4F089590
:10457000709561957F4F0895EE0FFF1F0590F491A0
:10458000E02D0994692796276927782787277827B8
:104590000895AA1BBB1B51E107C0AA1FBB1FA6178A
:1045A000B70710F0A61BB70B881F991F5A95A9F7DC
:1045B00080959095BC01CD010895FB01DC0104C0FC
:1045C0008D910190801921F441505040C8F7881B0B
:1045D000990B0895F999FECF92BD81BDF89A99275C
:1045E00080B50895A8E1B0E042E050E00C941E23AD
:1045F000262FF999FECF92BD81BDF89A019700B49C
:10460000021639F01FBA20BD0FB6F894FA9AF99A3B
:104610000FBE08950396272F0E94F9220E94F822C8
:10462000252F0E94F922242F0C94F9220196272F7E
:104630000E94F9220C94F822DC01CB01FC01F999CB
:10464000FECF06C0F2BDE1BDF89A319600B40D92DE
:1046500041505040B8F70895F894FFCFBA05BA0515
:10466000EB05EB057E069A061A061A06A5060C0748
:104670001B071B07E507E507EE07EE07F007EE0748
:10468000EE07EE07E507E507F507EE07EE07F50786
:104690003E154B1572157E158915941597159715AE
:1046A0009715971597159A159E15A615B315C0154C
:1046B000C315C615D31563218B2174228B21742257
:0A46C000BE21DF21742236224222BF
:1046CA00C800FB012808641E140A321E331B581B3B
:1046DA00371BB31BAF1B361B01E200E900EA00B52A
:1046EA0000B600B700CD008301CC008A0192019484
:1046FA00012102230224022502260227022A02B3EA
:10470A0000B4006F007000818283E200E900EA00D1
:10471A00B500B600B700CD008301CC008A01920132
:10472A0094012102230224022502260227022A02D8
:10473A00B300B4006F00700081828332909192F7C7
:10474A00F6F594969734353666673331F0F4F140CE
:0E475A00227BCC032F035103D402ED020D038A
:00000001FF
